{
  "_format": "hh-sol-artifact-1",
  "contractName": "ProtocolCampNFT",
  "sourceName": "contracts/ProtocolCampNFT.sol",
  "abi": [
    {
      "inputs": [],
      "stateMutability": "nonpayable",
      "type": "constructor"
    },
    {
      "anonymous": false,
      "inputs": [
        {
          "indexed": true,
          "internalType": "address",
          "name": "owner",
          "type": "address"
        },
        {
          "indexed": true,
          "internalType": "address",
          "name": "approved",
          "type": "address"
        },
        {
          "indexed": true,
          "internalType": "uint256",
          "name": "tokenId",
          "type": "uint256"
        }
      ],
      "name": "Approval",
      "type": "event"
    },
    {
      "anonymous": false,
      "inputs": [
        {
          "indexed": true,
          "internalType": "address",
          "name": "owner",
          "type": "address"
        },
        {
          "indexed": true,
          "internalType": "address",
          "name": "operator",
          "type": "address"
        },
        {
          "indexed": false,
          "internalType": "bool",
          "name": "approved",
          "type": "bool"
        }
      ],
      "name": "ApprovalForAll",
      "type": "event"
    },
    {
      "anonymous": false,
      "inputs": [
        {
          "indexed": false,
          "internalType": "address",
          "name": "sender",
          "type": "address"
        },
        {
          "indexed": false,
          "internalType": "uint256",
          "name": "tokenId",
          "type": "uint256"
        }
      ],
      "name": "NewEpicNFTMinted",
      "type": "event"
    },
    {
      "anonymous": false,
      "inputs": [
        {
          "indexed": true,
          "internalType": "address",
          "name": "previousOwner",
          "type": "address"
        },
        {
          "indexed": true,
          "internalType": "address",
          "name": "newOwner",
          "type": "address"
        }
      ],
      "name": "OwnershipTransferred",
      "type": "event"
    },
    {
      "anonymous": false,
      "inputs": [
        {
          "indexed": true,
          "internalType": "address",
          "name": "from",
          "type": "address"
        },
        {
          "indexed": true,
          "internalType": "address",
          "name": "to",
          "type": "address"
        },
        {
          "indexed": true,
          "internalType": "uint256",
          "name": "tokenId",
          "type": "uint256"
        }
      ],
      "name": "Transfer",
      "type": "event"
    },
    {
      "inputs": [],
      "name": "_merkleRoot",
      "outputs": [
        {
          "internalType": "bytes32",
          "name": "",
          "type": "bytes32"
        }
      ],
      "stateMutability": "view",
      "type": "function"
    },
    {
      "inputs": [],
      "name": "_paused",
      "outputs": [
        {
          "internalType": "bool",
          "name": "",
          "type": "bool"
        }
      ],
      "stateMutability": "view",
      "type": "function"
    },
    {
      "inputs": [],
      "name": "_quantity",
      "outputs": [
        {
          "internalType": "uint256",
          "name": "",
          "type": "uint256"
        }
      ],
      "stateMutability": "view",
      "type": "function"
    },
    {
      "inputs": [
        {
          "internalType": "uint256",
          "name": "tokenId",
          "type": "uint256"
        }
      ],
      "name": "_tokenURI",
      "outputs": [
        {
          "internalType": "string",
          "name": "",
          "type": "string"
        }
      ],
      "stateMutability": "view",
      "type": "function"
    },
    {
      "inputs": [],
      "name": "_total",
      "outputs": [
        {
          "internalType": "uint256",
          "name": "",
          "type": "uint256"
        }
      ],
      "stateMutability": "view",
      "type": "function"
    },
    {
      "inputs": [
        {
          "internalType": "address",
          "name": "to",
          "type": "address"
        },
        {
          "internalType": "uint256",
          "name": "tokenId",
          "type": "uint256"
        }
      ],
      "name": "approve",
      "outputs": [],
      "stateMutability": "nonpayable",
      "type": "function"
    },
    {
      "inputs": [
        {
          "internalType": "address",
          "name": "owner",
          "type": "address"
        }
      ],
      "name": "balanceOf",
      "outputs": [
        {
          "internalType": "uint256",
          "name": "",
          "type": "uint256"
        }
      ],
      "stateMutability": "view",
      "type": "function"
    },
    {
      "inputs": [
        {
          "internalType": "address",
          "name": "newOwner",
          "type": "address"
        }
      ],
      "name": "changeOwnership",
      "outputs": [],
      "stateMutability": "nonpayable",
      "type": "function"
    },
    {
      "inputs": [
        {
          "internalType": "uint256",
          "name": "tokenId",
          "type": "uint256"
        }
      ],
      "name": "getApproved",
      "outputs": [
        {
          "internalType": "address",
          "name": "",
          "type": "address"
        }
      ],
      "stateMutability": "view",
      "type": "function"
    },
    {
      "inputs": [
        {
          "internalType": "address",
          "name": "owner",
          "type": "address"
        },
        {
          "internalType": "address",
          "name": "operator",
          "type": "address"
        }
      ],
      "name": "isApprovedForAll",
      "outputs": [
        {
          "internalType": "bool",
          "name": "",
          "type": "bool"
        }
      ],
      "stateMutability": "view",
      "type": "function"
    },
    {
      "inputs": [
        {
          "internalType": "address",
          "name": "to",
          "type": "address"
        },
        {
          "internalType": "uint256",
          "name": "_id",
          "type": "uint256"
        }
      ],
      "name": "mintByOwner",
      "outputs": [],
      "stateMutability": "nonpayable",
      "type": "function"
    },
    {
      "inputs": [
        {
          "internalType": "bytes32[]",
          "name": "_merkleProof",
          "type": "bytes32[]"
        },
        {
          "internalType": "uint256",
          "name": "_id",
          "type": "uint256"
        }
      ],
      "name": "mintWL",
      "outputs": [],
      "stateMutability": "nonpayable",
      "type": "function"
    },
    {
      "inputs": [],
      "name": "name",
      "outputs": [
        {
          "internalType": "string",
          "name": "",
          "type": "string"
        }
      ],
      "stateMutability": "view",
      "type": "function"
    },
    {
      "inputs": [],
      "name": "owner",
      "outputs": [
        {
          "internalType": "address",
          "name": "",
          "type": "address"
        }
      ],
      "stateMutability": "view",
      "type": "function"
    },
    {
      "inputs": [
        {
          "internalType": "uint256",
          "name": "tokenId",
          "type": "uint256"
        }
      ],
      "name": "ownerOf",
      "outputs": [
        {
          "internalType": "address",
          "name": "",
          "type": "address"
        }
      ],
      "stateMutability": "view",
      "type": "function"
    },
    {
      "inputs": [
        {
          "internalType": "bool",
          "name": "val",
          "type": "bool"
        }
      ],
      "name": "pause",
      "outputs": [],
      "stateMutability": "nonpayable",
      "type": "function"
    },
    {
      "inputs": [],
      "name": "renounceOwnership",
      "outputs": [],
      "stateMutability": "nonpayable",
      "type": "function"
    },
    {
      "inputs": [
        {
          "internalType": "address",
          "name": "from",
          "type": "address"
        },
        {
          "internalType": "address",
          "name": "to",
          "type": "address"
        },
        {
          "internalType": "uint256",
          "name": "tokenId",
          "type": "uint256"
        }
      ],
      "name": "safeTransferFrom",
      "outputs": [],
      "stateMutability": "nonpayable",
      "type": "function"
    },
    {
      "inputs": [
        {
          "internalType": "address",
          "name": "from",
          "type": "address"
        },
        {
          "internalType": "address",
          "name": "to",
          "type": "address"
        },
        {
          "internalType": "uint256",
          "name": "tokenId",
          "type": "uint256"
        },
        {
          "internalType": "bytes",
          "name": "_data",
          "type": "bytes"
        }
      ],
      "name": "safeTransferFrom",
      "outputs": [],
      "stateMutability": "nonpayable",
      "type": "function"
    },
    {
      "inputs": [
        {
          "internalType": "address",
          "name": "operator",
          "type": "address"
        },
        {
          "internalType": "bool",
          "name": "approved",
          "type": "bool"
        }
      ],
      "name": "setApprovalForAll",
      "outputs": [],
      "stateMutability": "nonpayable",
      "type": "function"
    },
    {
      "inputs": [
        {
          "internalType": "string",
          "name": "baseURI",
          "type": "string"
        }
      ],
      "name": "setBaseURI",
      "outputs": [],
      "stateMutability": "nonpayable",
      "type": "function"
    },
    {
      "inputs": [
        {
          "internalType": "bytes32",
          "name": "merkleRoot",
          "type": "bytes32"
        }
      ],
      "name": "setMerkleRoot",
      "outputs": [],
      "stateMutability": "nonpayable",
      "type": "function"
    },
    {
      "inputs": [
        {
          "internalType": "uint256",
          "name": "quantity",
          "type": "uint256"
        }
      ],
      "name": "setQuantity",
      "outputs": [],
      "stateMutability": "nonpayable",
      "type": "function"
    },
    {
      "inputs": [
        {
          "internalType": "bytes4",
          "name": "interfaceId",
          "type": "bytes4"
        }
      ],
      "name": "supportsInterface",
      "outputs": [
        {
          "internalType": "bool",
          "name": "",
          "type": "bool"
        }
      ],
      "stateMutability": "view",
      "type": "function"
    },
    {
      "inputs": [],
      "name": "symbol",
      "outputs": [
        {
          "internalType": "string",
          "name": "",
          "type": "string"
        }
      ],
      "stateMutability": "view",
      "type": "function"
    },
    {
      "inputs": [
        {
          "internalType": "uint256",
          "name": "tokenId",
          "type": "uint256"
        }
      ],
      "name": "tokenURI",
      "outputs": [
        {
          "internalType": "string",
          "name": "",
          "type": "string"
        }
      ],
      "stateMutability": "view",
      "type": "function"
    },
    {
      "inputs": [
        {
          "internalType": "address",
          "name": "from",
          "type": "address"
        },
        {
          "internalType": "address",
          "name": "to",
          "type": "address"
        },
        {
          "internalType": "uint256",
          "name": "tokenId",
          "type": "uint256"
        }
      ],
      "name": "transferFrom",
      "outputs": [],
      "stateMutability": "nonpayable",
      "type": "function"
    },
    {
      "inputs": [
        {
          "internalType": "address",
          "name": "newOwner",
          "type": "address"
        }
      ],
      "name": "transferOwnership",
      "outputs": [],
      "stateMutability": "nonpayable",
      "type": "function"
    },
    {
      "inputs": [
        {
          "internalType": "address",
          "name": "",
          "type": "address"
        }
      ],
      "name": "whitelistClaimed",
      "outputs": [
        {
          "internalType": "bool",
          "name": "",
          "type": "bool"
        }
      ],
      "stateMutability": "view",
      "type": "function"
    },
    {
      "inputs": [],
      "name": "withdraw",
      "outputs": [],
      "stateMutability": "payable",
      "type": "function"
    }
  ],
  "bytecode": "0x60806040526000600860006101000a81548160ff0219169083151502179055503480156200002c57600080fd5b506040518060400160405280600881526020017f57546573742076370000000000000000000000000000000000000000000000008152506040518060400160405280600481526020017f54455354000000000000000000000000000000000000000000000000000000008152508160009080519060200190620000b1929190620001c1565b508060019080519060200190620000ca929190620001c1565b505050620000ed620000e1620000f360201b60201c565b620000fb60201b60201c565b620002d6565b600033905090565b6000600660009054906101000a900473ffffffffffffffffffffffffffffffffffffffff16905081600660006101000a81548173ffffffffffffffffffffffffffffffffffffffff021916908373ffffffffffffffffffffffffffffffffffffffff1602179055508173ffffffffffffffffffffffffffffffffffffffff168173ffffffffffffffffffffffffffffffffffffffff167f8be0079c531659141344cd1fd0a4f28419497f9722a3daafe3b4186f6b6457e060405160405180910390a35050565b828054620001cf9062000271565b90600052602060002090601f016020900481019282620001f357600085556200023f565b82601f106200020e57805160ff19168380011785556200023f565b828001600101855582156200023f579182015b828111156200023e57825182559160200191906001019062000221565b5b5090506200024e919062000252565b5090565b5b808211156200026d57600081600090555060010162000253565b5090565b600060028204905060018216806200028a57607f821691505b60208210811415620002a157620002a0620002a7565b5b50919050565b7f4e487b7100000000000000000000000000000000000000000000000000000000600052602260045260246000fd5b613cd580620002e66000396000f3fe6080604052600436106101cd5760003560e01c806370a08231116100f757806395d89b4111610095578063c87b56dd11610064578063c87b56dd1461063d578063db4bec441461067a578063e985e9c5146106b7578063f2fde38b146106f4576101cd565b806395d89b411461059757806397db21f5146105c2578063a22cb465146105eb578063b88d4fde14610614576101cd565b80637a27da79116100d15780637a27da79146104db5780637cb64759146105065780638d17e7121461052f5780638da5cb5b1461056c576101cd565b806370a082311461045c57806370dc5a8414610499578063715018a6146104c4576101cd565b806323b872dd1161016f5780633ccfd60b1161013e5780633ccfd60b146103c357806342842e0e146103cd57806355f804b3146103f65780636352211e1461041f576101cd565b806323b872dd1461031d5780632af4c31e146103465780632fc37ab21461036f5780633542aee21461039a576101cd565b8063081812fc116101ab578063081812fc14610263578063095ea7b3146102a05780630bf15326146102c957806316c61ccc146102f2576101cd565b806301ffc9a7146101d257806302329a291461020f57806306fdde0314610238575b600080fd5b3480156101de57600080fd5b506101f960048036038101906101f49190612ad4565b61071d565b604051610206919061304e565b60405180910390f35b34801561021b57600080fd5b5061023660048036038101906102319190612a82565b6107ff565b005b34801561024457600080fd5b5061024d610898565b60405161025a9190613084565b60405180910390f35b34801561026f57600080fd5b5061028a60048036038101906102859190612b67565b61092a565b6040516102979190612fbe565b60405180910390f35b3480156102ac57600080fd5b506102c760048036038101906102c291906129ee565b6109af565b005b3480156102d557600080fd5b506102f060048036038101906102eb9190612b67565b610ac7565b005b3480156102fe57600080fd5b50610307610b4d565b604051610314919061304e565b60405180910390f35b34801561032957600080fd5b50610344600480360381019061033f91906128e8565b610b60565b005b34801561035257600080fd5b5061036d60048036038101906103689190612883565b610bc0565b005b34801561037b57600080fd5b50610384610c48565b6040516103919190613069565b60405180910390f35b3480156103a657600080fd5b506103c160048036038101906103bc91906129ee565b610c4e565b005b6103cb610d29565b005b3480156103d957600080fd5b506103f460048036038101906103ef91906128e8565b610e25565b005b34801561040257600080fd5b5061041d60048036038101906104189190612b26565b610e45565b005b34801561042b57600080fd5b5061044660048036038101906104419190612b67565b610edb565b6040516104539190612fbe565b60405180910390f35b34801561046857600080fd5b50610483600480360381019061047e9190612883565b610f8d565b6040516104909190613306565b60405180910390f35b3480156104a557600080fd5b506104ae611045565b6040516104bb9190613306565b60405180910390f35b3480156104d057600080fd5b506104d961104b565b005b3480156104e757600080fd5b506104f06110d3565b6040516104fd9190613306565b60405180910390f35b34801561051257600080fd5b5061052d60048036038101906105289190612aab565b6110e4565b005b34801561053b57600080fd5b5061055660048036038101906105519190612b67565b61116a565b6040516105639190613084565b60405180910390f35b34801561057857600080fd5b5061058161117c565b60405161058e9190612fbe565b60405180910390f35b3480156105a357600080fd5b506105ac6111a6565b6040516105b99190613084565b60405180910390f35b3480156105ce57600080fd5b506105e960048036038101906105e49190612a2a565b611238565b005b3480156105f757600080fd5b50610612600480360381019061060d91906129b2565b611438565b005b34801561062057600080fd5b5061063b60048036038101906106369190612937565b61144e565b005b34801561064957600080fd5b50610664600480360381019061065f9190612b67565b6114b0565b6040516106719190613084565b60405180910390f35b34801561068657600080fd5b506106a1600480360381019061069c9190612883565b611557565b6040516106ae919061304e565b60405180910390f35b3480156106c357600080fd5b506106de60048036038101906106d991906128ac565b611577565b6040516106eb919061304e565b60405180910390f35b34801561070057600080fd5b5061071b60048036038101906107169190612883565b61160b565b005b60007f80ac58cd000000000000000000000000000000000000000000000000000000007bffffffffffffffffffffffffffffffffffffffffffffffffffffffff1916827bffffffffffffffffffffffffffffffffffffffffffffffffffffffff191614806107e857507f5b5e139f000000000000000000000000000000000000000000000000000000007bffffffffffffffffffffffffffffffffffffffffffffffffffffffff1916827bffffffffffffffffffffffffffffffffffffffffffffffffffffffff1916145b806107f857506107f782611703565b5b9050919050565b61080761176d565b73ffffffffffffffffffffffffffffffffffffffff1661082561117c565b73ffffffffffffffffffffffffffffffffffffffff161461087b576040517f08c379a000000000000000000000000000000000000000000000000000000000815260040161087290613286565b60405180910390fd5b80600860006101000a81548160ff02191690831515021790555050565b6060600080546108a790613571565b80601f01602080910402602001604051908101604052809291908181526020018280546108d390613571565b80156109205780601f106108f557610100808354040283529160200191610920565b820191906000526020600020905b81548152906001019060200180831161090357829003601f168201915b5050505050905090565b600061093582611775565b610974576040517f08c379a000000000000000000000000000000000000000000000000000000000815260040161096b90613266565b60405180910390fd5b6004600083815260200190815260200160002060009054906101000a900473ffffffffffffffffffffffffffffffffffffffff169050919050565b60006109ba82610edb565b90508073ffffffffffffffffffffffffffffffffffffffff168373ffffffffffffffffffffffffffffffffffffffff161415610a2b576040517f08c379a0000000000000000000000000000000000000000000000000000000008152600401610a22906132c6565b60405180910390fd5b8073ffffffffffffffffffffffffffffffffffffffff16610a4a61176d565b73ffffffffffffffffffffffffffffffffffffffff161480610a795750610a7881610a7361176d565b611577565b5b610ab8576040517f08c379a0000000000000000000000000000000000000000000000000000000008152600401610aaf90613186565b60405180910390fd5b610ac283836117e1565b505050565b610acf61176d565b73ffffffffffffffffffffffffffffffffffffffff16610aed61117c565b73ffffffffffffffffffffffffffffffffffffffff1614610b43576040517f08c379a0000000000000000000000000000000000000000000000000000000008152600401610b3a90613286565b60405180910390fd5b80600b8190555050565b600860009054906101000a900460ff1681565b610b71610b6b61176d565b8261189a565b610bb0576040517f08c379a0000000000000000000000000000000000000000000000000000000008152600401610ba7906132e6565b60405180910390fd5b610bbb838383611978565b505050565b610bc861176d565b73ffffffffffffffffffffffffffffffffffffffff16610be661117c565b73ffffffffffffffffffffffffffffffffffffffff1614610c3c576040517f08c379a0000000000000000000000000000000000000000000000000000000008152600401610c3390613286565b60405180910390fd5b610c458161160b565b50565b600a5481565b610c5661176d565b73ffffffffffffffffffffffffffffffffffffffff16610c7461117c565b73ffffffffffffffffffffffffffffffffffffffff1614610cca576040517f08c379a0000000000000000000000000000000000000000000000000000000008152600401610cc190613286565b60405180910390fd5b600860009054906101000a900460ff1615610d1a576040517f08c379a0000000000000000000000000000000000000000000000000000000008152600401610d1190613226565b60405180910390fd5b610d248282611bdf565b505050565b610d3161176d565b73ffffffffffffffffffffffffffffffffffffffff16610d4f61117c565b73ffffffffffffffffffffffffffffffffffffffff1614610da5576040517f08c379a0000000000000000000000000000000000000000000000000000000008152600401610d9c90613286565b60405180910390fd5b6000610daf61117c565b73ffffffffffffffffffffffffffffffffffffffff1647604051610dd290612fa9565b60006040518083038185875af1925050503d8060008114610e0f576040519150601f19603f3d011682016040523d82523d6000602084013e610e14565b606091505b5050905080610e2257600080fd5b50565b610e408383836040518060200160405280600081525061144e565b505050565b610e4d61176d565b73ffffffffffffffffffffffffffffffffffffffff16610e6b61117c565b73ffffffffffffffffffffffffffffffffffffffff1614610ec1576040517f08c379a0000000000000000000000000000000000000000000000000000000008152600401610eb890613286565b60405180910390fd5b80600c9080519060200190610ed7929190612648565b5050565b6000806002600084815260200190815260200160002060009054906101000a900473ffffffffffffffffffffffffffffffffffffffff169050600073ffffffffffffffffffffffffffffffffffffffff168173ffffffffffffffffffffffffffffffffffffffff161415610f84576040517f08c379a0000000000000000000000000000000000000000000000000000000008152600401610f7b906131c6565b60405180910390fd5b80915050919050565b60008073ffffffffffffffffffffffffffffffffffffffff168273ffffffffffffffffffffffffffffffffffffffff161415610ffe576040517f08c379a0000000000000000000000000000000000000000000000000000000008152600401610ff5906131a6565b60405180910390fd5b600360008373ffffffffffffffffffffffffffffffffffffffff1673ffffffffffffffffffffffffffffffffffffffff168152602001908152602001600020549050919050565b600b5481565b61105361176d565b73ffffffffffffffffffffffffffffffffffffffff1661107161117c565b73ffffffffffffffffffffffffffffffffffffffff16146110c7576040517f08c379a00000000000000000000000000000000000000000000000000000000081526004016110be90613286565b60405180910390fd5b6110d16000611cef565b565b60006110df6007611db5565b905090565b6110ec61176d565b73ffffffffffffffffffffffffffffffffffffffff1661110a61117c565b73ffffffffffffffffffffffffffffffffffffffff1614611160576040517f08c379a000000000000000000000000000000000000000000000000000000000815260040161115790613286565b60405180910390fd5b80600a8190555050565b6060611175826114b0565b9050919050565b6000600660009054906101000a900473ffffffffffffffffffffffffffffffffffffffff16905090565b6060600180546111b590613571565b80601f01602080910402602001604051908101604052809291908181526020018280546111e190613571565b801561122e5780601f106112035761010080835404028352916020019161122e565b820191906000526020600020905b81548152906001019060200180831161121157829003601f168201915b5050505050905090565b600860009054906101000a900460ff1615611288576040517f08c379a000000000000000000000000000000000000000000000000000000000815260040161127f90613226565b60405180910390fd5b600960003373ffffffffffffffffffffffffffffffffffffffff1673ffffffffffffffffffffffffffffffffffffffff16815260200190815260200160002060009054906101000a900460ff1615611315576040517f08c379a000000000000000000000000000000000000000000000000000000000815260040161130c90613246565b60405180910390fd5b6000338260405160200161132a929190612f59565b604051602081830303815290604052805190602001209050611390848480806020026020016040519081016040528093929190818152602001838360200280828437600081840152601f19601f82011690508083019250505050505050600a5483611dc3565b6113cf576040517f08c379a00000000000000000000000000000000000000000000000000000000081526004016113c6906131e6565b60405180910390fd5b6001600960003373ffffffffffffffffffffffffffffffffffffffff1673ffffffffffffffffffffffffffffffffffffffff16815260200190815260200160002060006101000a81548160ff0219169083151502179055506114313383611bdf565b5050505050565b61144a61144361176d565b8383611dda565b5050565b61145f61145961176d565b8361189a565b61149e576040517f08c379a0000000000000000000000000000000000000000000000000000000008152600401611495906132e6565b60405180910390fd5b6114aa84848484611f47565b50505050565b60606114bb82611775565b6114fa576040517f08c379a00000000000000000000000000000000000000000000000000000000081526004016114f1906132a6565b60405180910390fd5b6000611504611fa3565b90506000815111611524576040518060200160405280600081525061154f565b8061152e84612035565b60405160200161153f929190612f85565b6040516020818303038152906040525b915050919050565b60096020528060005260406000206000915054906101000a900460ff1681565b6000600560008473ffffffffffffffffffffffffffffffffffffffff1673ffffffffffffffffffffffffffffffffffffffff16815260200190815260200160002060008373ffffffffffffffffffffffffffffffffffffffff1673ffffffffffffffffffffffffffffffffffffffff16815260200190815260200160002060009054906101000a900460ff16905092915050565b61161361176d565b73ffffffffffffffffffffffffffffffffffffffff1661163161117c565b73ffffffffffffffffffffffffffffffffffffffff1614611687576040517f08c379a000000000000000000000000000000000000000000000000000000000815260040161167e90613286565b60405180910390fd5b600073ffffffffffffffffffffffffffffffffffffffff168173ffffffffffffffffffffffffffffffffffffffff1614156116f7576040517f08c379a00000000000000000000000000000000000000000000000000000000081526004016116ee906130c6565b60405180910390fd5b61170081611cef565b50565b60007f01ffc9a7000000000000000000000000000000000000000000000000000000007bffffffffffffffffffffffffffffffffffffffffffffffffffffffff1916827bffffffffffffffffffffffffffffffffffffffffffffffffffffffff1916149050919050565b600033905090565b60008073ffffffffffffffffffffffffffffffffffffffff166002600084815260200190815260200160002060009054906101000a900473ffffffffffffffffffffffffffffffffffffffff1673ffffffffffffffffffffffffffffffffffffffff1614159050919050565b816004600083815260200190815260200160002060006101000a81548173ffffffffffffffffffffffffffffffffffffffff021916908373ffffffffffffffffffffffffffffffffffffffff160217905550808273ffffffffffffffffffffffffffffffffffffffff1661185483610edb565b73ffffffffffffffffffffffffffffffffffffffff167f8c5be1e5ebec7d5bd14f71427d1e84f3dd0314c0f7b2291e5b200ac8c7c3b92560405160405180910390a45050565b60006118a582611775565b6118e4576040517f08c379a00000000000000000000000000000000000000000000000000000000081526004016118db90613166565b60405180910390fd5b60006118ef83610edb565b90508073ffffffffffffffffffffffffffffffffffffffff168473ffffffffffffffffffffffffffffffffffffffff16148061195e57508373ffffffffffffffffffffffffffffffffffffffff166119468461092a565b73ffffffffffffffffffffffffffffffffffffffff16145b8061196f575061196e8185611577565b5b91505092915050565b8273ffffffffffffffffffffffffffffffffffffffff1661199882610edb565b73ffffffffffffffffffffffffffffffffffffffff16146119ee576040517f08c379a00000000000000000000000000000000000000000000000000000000081526004016119e5906130e6565b60405180910390fd5b600073ffffffffffffffffffffffffffffffffffffffff168273ffffffffffffffffffffffffffffffffffffffff161415611a5e576040517f08c379a0000000000000000000000000000000000000000000000000000000008152600401611a5590613126565b60405180910390fd5b611a698383836121e2565b611a746000826117e1565b6001600360008573ffffffffffffffffffffffffffffffffffffffff1673ffffffffffffffffffffffffffffffffffffffff1681526020019081526020016000206000828254611ac4919061347d565b925050819055506001600360008473ffffffffffffffffffffffffffffffffffffffff1673ffffffffffffffffffffffffffffffffffffffff1681526020019081526020016000206000828254611b1b91906133f6565b92505081905550816002600083815260200190815260200160002060006101000a81548173ffffffffffffffffffffffffffffffffffffffff021916908373ffffffffffffffffffffffffffffffffffffffff160217905550808273ffffffffffffffffffffffffffffffffffffffff168473ffffffffffffffffffffffffffffffffffffffff167fddf252ad1be2c89b69c2b068fc378daa952ba7f163c4a11628f55a4df523b3ef60405160405180910390a4611bda8383836121e7565b505050565b60008073ffffffffffffffffffffffffffffffffffffffff168373ffffffffffffffffffffffffffffffffffffffff161415611c50576040517f08c379a0000000000000000000000000000000000000000000000000000000008152600401611c4790613206565b60405180910390fd5b611c5982611775565b15611c99576040517f08c379a0000000000000000000000000000000000000000000000000000000008152600401611c9090613106565b60405180910390fd5b611ca360076121ec565b611cad8383612202565b7febb98688741ffa4c7589bf325de30cf7becb63de567842e1ccdb6cb949fdc82c3383604051611cde929190613025565b60405180910390a181905092915050565b6000600660009054906101000a900473ffffffffffffffffffffffffffffffffffffffff16905081600660006101000a81548173ffffffffffffffffffffffffffffffffffffffff021916908373ffffffffffffffffffffffffffffffffffffffff1602179055508173ffffffffffffffffffffffffffffffffffffffff168173ffffffffffffffffffffffffffffffffffffffff167f8be0079c531659141344cd1fd0a4f28419497f9722a3daafe3b4186f6b6457e060405160405180910390a35050565b600081600001549050919050565b600082611dd085846123dc565b1490509392505050565b8173ffffffffffffffffffffffffffffffffffffffff168373ffffffffffffffffffffffffffffffffffffffff161415611e49576040517f08c379a0000000000000000000000000000000000000000000000000000000008152600401611e4090613146565b60405180910390fd5b80600560008573ffffffffffffffffffffffffffffffffffffffff1673ffffffffffffffffffffffffffffffffffffffff16815260200190815260200160002060008473ffffffffffffffffffffffffffffffffffffffff1673ffffffffffffffffffffffffffffffffffffffff16815260200190815260200160002060006101000a81548160ff0219169083151502179055508173ffffffffffffffffffffffffffffffffffffffff168373ffffffffffffffffffffffffffffffffffffffff167f17307eab39ab6107e8899845ad3d59bd9653f200f220920489ca2b5937696c3183604051611f3a919061304e565b60405180910390a3505050565b611f52848484611978565b611f5e84848484612477565b611f9d576040517f08c379a0000000000000000000000000000000000000000000000000000000008152600401611f94906130a6565b60405180910390fd5b50505050565b6060600c8054611fb290613571565b80601f0160208091040260200160405190810160405280929190818152602001828054611fde90613571565b801561202b5780601f106120005761010080835404028352916020019161202b565b820191906000526020600020905b81548152906001019060200180831161200e57829003601f168201915b5050505050905090565b6060600082141561207d576040518060400160405280600181526020017f300000000000000000000000000000000000000000000000000000000000000081525090506121dd565b600082905060005b600082146120af578080612098906135d4565b915050600a826120a8919061344c565b9150612085565b60008167ffffffffffffffff8111156120f1577f4e487b7100000000000000000000000000000000000000000000000000000000600052604160045260246000fd5b6040519080825280601f01601f1916602001820160405280156121235781602001600182028036833780820191505090505b5090505b600085146121d65760018261213c919061347d565b9150600a8561214b919061364b565b603061215791906133f6565b60f81b818381518110612193577f4e487b7100000000000000000000000000000000000000000000000000000000600052603260045260246000fd5b60200101907effffffffffffffffffffffffffffffffffffffffffffffffffffffffffffff1916908160001a905350600a856121cf919061344c565b9450612127565b8093505050505b919050565b505050565b505050565b6001816000016000828254019250508190555050565b600073ffffffffffffffffffffffffffffffffffffffff168273ffffffffffffffffffffffffffffffffffffffff161415612272576040517f08c379a000000000000000000000000000000000000000000000000000000000815260040161226990613206565b60405180910390fd5b61227b81611775565b156122bb576040517f08c379a00000000000000000000000000000000000000000000000000000000081526004016122b290613106565b60405180910390fd5b6122c7600083836121e2565b6001600360008473ffffffffffffffffffffffffffffffffffffffff1673ffffffffffffffffffffffffffffffffffffffff168152602001908152602001600020600082825461231791906133f6565b92505081905550816002600083815260200190815260200160002060006101000a81548173ffffffffffffffffffffffffffffffffffffffff021916908373ffffffffffffffffffffffffffffffffffffffff160217905550808273ffffffffffffffffffffffffffffffffffffffff16600073ffffffffffffffffffffffffffffffffffffffff167fddf252ad1be2c89b69c2b068fc378daa952ba7f163c4a11628f55a4df523b3ef60405160405180910390a46123d8600083836121e7565b5050565b60008082905060005b845181101561246c576000858281518110612429577f4e487b7100000000000000000000000000000000000000000000000000000000600052603260045260246000fd5b6020026020010151905080831161244b57612444838261260e565b9250612458565b612455818461260e565b92505b508080612464906135d4565b9150506123e5565b508091505092915050565b60006124988473ffffffffffffffffffffffffffffffffffffffff16612625565b15612601578373ffffffffffffffffffffffffffffffffffffffff1663150b7a026124c161176d565b8786866040518563ffffffff1660e01b81526004016124e39493929190612fd9565b602060405180830381600087803b1580156124fd57600080fd5b505af192505050801561252e57506040513d601f19601f8201168201806040525081019061252b9190612afd565b60015b6125b1573d806000811461255e576040519150601f19603f3d011682016040523d82523d6000602084013e612563565b606091505b506000815114156125a9576040517f08c379a00000000000000000000000000000000000000000000000000000000081526004016125a0906130a6565b60405180910390fd5b805181602001fd5b63150b7a0260e01b7bffffffffffffffffffffffffffffffffffffffffffffffffffffffff1916817bffffffffffffffffffffffffffffffffffffffffffffffffffffffff191614915050612606565b600190505b949350505050565b600082600052816020526040600020905092915050565b6000808273ffffffffffffffffffffffffffffffffffffffff163b119050919050565b82805461265490613571565b90600052602060002090601f01602090048101928261267657600085556126bd565b82601f1061268f57805160ff19168380011785556126bd565b828001600101855582156126bd579182015b828111156126bc5782518255916020019190600101906126a1565b5b5090506126ca91906126ce565b5090565b5b808211156126e75760008160009055506001016126cf565b5090565b60006126fe6126f984613346565b613321565b90508281526020810184848401111561271657600080fd5b61272184828561352f565b509392505050565b600061273c61273784613377565b613321565b90508281526020810184848401111561275457600080fd5b61275f84828561352f565b509392505050565b60008135905061277681613c2c565b92915050565b60008083601f84011261278e57600080fd5b8235905067ffffffffffffffff8111156127a757600080fd5b6020830191508360208202830111156127bf57600080fd5b9250929050565b6000813590506127d581613c43565b92915050565b6000813590506127ea81613c5a565b92915050565b6000813590506127ff81613c71565b92915050565b60008151905061281481613c71565b92915050565b600082601f83011261282b57600080fd5b813561283b8482602086016126eb565b91505092915050565b600082601f83011261285557600080fd5b8135612865848260208601612729565b91505092915050565b60008135905061287d81613c88565b92915050565b60006020828403121561289557600080fd5b60006128a384828501612767565b91505092915050565b600080604083850312156128bf57600080fd5b60006128cd85828601612767565b92505060206128de85828601612767565b9150509250929050565b6000806000606084860312156128fd57600080fd5b600061290b86828701612767565b935050602061291c86828701612767565b925050604061292d8682870161286e565b9150509250925092565b6000806000806080858703121561294d57600080fd5b600061295b87828801612767565b945050602061296c87828801612767565b935050604061297d8782880161286e565b925050606085013567ffffffffffffffff81111561299a57600080fd5b6129a68782880161281a565b91505092959194509250565b600080604083850312156129c557600080fd5b60006129d385828601612767565b92505060206129e4858286016127c6565b9150509250929050565b60008060408385031215612a0157600080fd5b6000612a0f85828601612767565b9250506020612a208582860161286e565b9150509250929050565b600080600060408486031215612a3f57600080fd5b600084013567ffffffffffffffff811115612a5957600080fd5b612a658682870161277c565b93509350506020612a788682870161286e565b9150509250925092565b600060208284031215612a9457600080fd5b6000612aa2848285016127c6565b91505092915050565b600060208284031215612abd57600080fd5b6000612acb848285016127db565b91505092915050565b600060208284031215612ae657600080fd5b6000612af4848285016127f0565b91505092915050565b600060208284031215612b0f57600080fd5b6000612b1d84828501612805565b91505092915050565b600060208284031215612b3857600080fd5b600082013567ffffffffffffffff811115612b5257600080fd5b612b5e84828501612844565b91505092915050565b600060208284031215612b7957600080fd5b6000612b878482850161286e565b91505092915050565b612b99816134b1565b82525050565b612bb0612bab826134b1565b61361d565b82525050565b612bbf816134c3565b82525050565b612bce816134cf565b82525050565b6000612bdf826133a8565b612be981856133be565b9350612bf981856020860161353e565b612c0281613738565b840191505092915050565b6000612c18826133b3565b612c2281856133da565b9350612c3281856020860161353e565b612c3b81613738565b840191505092915050565b6000612c51826133b3565b612c5b81856133eb565b9350612c6b81856020860161353e565b80840191505092915050565b6000612c846032836133da565b9150612c8f82613756565b604082019050919050565b6000612ca76026836133da565b9150612cb2826137a5565b604082019050919050565b6000612cca6025836133da565b9150612cd5826137f4565b604082019050919050565b6000612ced601c836133da565b9150612cf882613843565b602082019050919050565b6000612d106024836133da565b9150612d1b8261386c565b604082019050919050565b6000612d336019836133da565b9150612d3e826138bb565b602082019050919050565b6000612d56602c836133da565b9150612d61826138e4565b604082019050919050565b6000612d796038836133da565b9150612d8482613933565b604082019050919050565b6000612d9c602a836133da565b9150612da782613982565b604082019050919050565b6000612dbf6029836133da565b9150612dca826139d1565b604082019050919050565b6000612de26012836133da565b9150612ded82613a20565b602082019050919050565b6000612e056020836133da565b9150612e1082613a49565b602082019050919050565b6000612e28600b836133da565b9150612e3382613a72565b602082019050919050565b6000612e4b600f836133da565b9150612e5682613a9b565b602082019050919050565b6000612e6e602c836133da565b9150612e7982613ac4565b604082019050919050565b6000612e916020836133da565b9150612e9c82613b13565b602082019050919050565b6000612eb4602f836133da565b9150612ebf82613b3c565b604082019050919050565b6000612ed76021836133da565b9150612ee282613b8b565b604082019050919050565b6000612efa6000836133cf565b9150612f0582613bda565b600082019050919050565b6000612f1d6031836133da565b9150612f2882613bdd565b604082019050919050565b612f3c81613525565b82525050565b612f53612f4e82613525565b613641565b82525050565b6000612f658285612b9f565b601482019150612f758284612f42565b6020820191508190509392505050565b6000612f918285612c46565b9150612f9d8284612c46565b91508190509392505050565b6000612fb482612eed565b9150819050919050565b6000602082019050612fd36000830184612b90565b92915050565b6000608082019050612fee6000830187612b90565b612ffb6020830186612b90565b6130086040830185612f33565b818103606083015261301a8184612bd4565b905095945050505050565b600060408201905061303a6000830185612b90565b6130476020830184612f33565b9392505050565b60006020820190506130636000830184612bb6565b92915050565b600060208201905061307e6000830184612bc5565b92915050565b6000602082019050818103600083015261309e8184612c0d565b905092915050565b600060208201905081810360008301526130bf81612c77565b9050919050565b600060208201905081810360008301526130df81612c9a565b9050919050565b600060208201905081810360008301526130ff81612cbd565b9050919050565b6000602082019050818103600083015261311f81612ce0565b9050919050565b6000602082019050818103600083015261313f81612d03565b9050919050565b6000602082019050818103600083015261315f81612d26565b9050919050565b6000602082019050818103600083015261317f81612d49565b9050919050565b6000602082019050818103600083015261319f81612d6c565b9050919050565b600060208201905081810360008301526131bf81612d8f565b9050919050565b600060208201905081810360008301526131df81612db2565b9050919050565b600060208201905081810360008301526131ff81612dd5565b9050919050565b6000602082019050818103600083015261321f81612df8565b9050919050565b6000602082019050818103600083015261323f81612e1b565b9050919050565b6000602082019050818103600083015261325f81612e3e565b9050919050565b6000602082019050818103600083015261327f81612e61565b9050919050565b6000602082019050818103600083015261329f81612e84565b9050919050565b600060208201905081810360008301526132bf81612ea7565b9050919050565b600060208201905081810360008301526132df81612eca565b9050919050565b600060208201905081810360008301526132ff81612f10565b9050919050565b600060208201905061331b6000830184612f33565b92915050565b600061332b61333c565b905061333782826135a3565b919050565b6000604051905090565b600067ffffffffffffffff82111561336157613360613709565b5b61336a82613738565b9050602081019050919050565b600067ffffffffffffffff82111561339257613391613709565b5b61339b82613738565b9050602081019050919050565b600081519050919050565b600081519050919050565b600082825260208201905092915050565b600081905092915050565b600082825260208201905092915050565b600081905092915050565b600061340182613525565b915061340c83613525565b9250827fffffffffffffffffffffffffffffffffffffffffffffffffffffffffffffffff038211156134415761344061367c565b5b828201905092915050565b600061345782613525565b915061346283613525565b925082613472576134716136ab565b5b828204905092915050565b600061348882613525565b915061349383613525565b9250828210156134a6576134a561367c565b5b828203905092915050565b60006134bc82613505565b9050919050565b60008115159050919050565b6000819050919050565b60007fffffffff0000000000000000000000000000000000000000000000000000000082169050919050565b600073ffffffffffffffffffffffffffffffffffffffff82169050919050565b6000819050919050565b82818337600083830152505050565b60005b8381101561355c578082015181840152602081019050613541565b8381111561356b576000848401525b50505050565b6000600282049050600182168061358957607f821691505b6020821081141561359d5761359c6136da565b5b50919050565b6135ac82613738565b810181811067ffffffffffffffff821117156135cb576135ca613709565b5b80604052505050565b60006135df82613525565b91507fffffffffffffffffffffffffffffffffffffffffffffffffffffffffffffffff8214156136125761361161367c565b5b600182019050919050565b60006136288261362f565b9050919050565b600061363a82613749565b9050919050565b6000819050919050565b600061365682613525565b915061366183613525565b925082613671576136706136ab565b5b828206905092915050565b7f4e487b7100000000000000000000000000000000000000000000000000000000600052601160045260246000fd5b7f4e487b7100000000000000000000000000000000000000000000000000000000600052601260045260246000fd5b7f4e487b7100000000000000000000000000000000000000000000000000000000600052602260045260246000fd5b7f4e487b7100000000000000000000000000000000000000000000000000000000600052604160045260246000fd5b6000601f19601f8301169050919050565b60008160601b9050919050565b7f4552433732313a207472616e7366657220746f206e6f6e20455243373231526560008201527f63656976657220696d706c656d656e7465720000000000000000000000000000602082015250565b7f4f776e61626c653a206e6577206f776e657220697320746865207a65726f206160008201527f6464726573730000000000000000000000000000000000000000000000000000602082015250565b7f4552433732313a207472616e736665722066726f6d20696e636f72726563742060008201527f6f776e6572000000000000000000000000000000000000000000000000000000602082015250565b7f4552433732313a20746f6b656e20616c7265616479206d696e74656400000000600082015250565b7f4552433732313a207472616e7366657220746f20746865207a65726f2061646460008201527f7265737300000000000000000000000000000000000000000000000000000000602082015250565b7f4552433732313a20617070726f766520746f2063616c6c657200000000000000600082015250565b7f4552433732313a206f70657261746f7220717565727920666f72206e6f6e657860008201527f697374656e7420746f6b656e0000000000000000000000000000000000000000602082015250565b7f4552433732313a20617070726f76652063616c6c6572206973206e6f74206f7760008201527f6e6572206e6f7220617070726f76656420666f7220616c6c0000000000000000602082015250565b7f4552433732313a2062616c616e636520717565727920666f7220746865207a6560008201527f726f206164647265737300000000000000000000000000000000000000000000602082015250565b7f4552433732313a206f776e657220717565727920666f72206e6f6e657869737460008201527f656e7420746f6b656e0000000000000000000000000000000000000000000000602082015250565b7f4e6f20574c206f722057726f6e67205552490000000000000000000000000000600082015250565b7f4552433732313a206d696e7420746f20746865207a65726f2061646472657373600082015250565b7f4d696e7420706175736564000000000000000000000000000000000000000000600082015250565b7f416c726561647920636c61696d65640000000000000000000000000000000000600082015250565b7f4552433732313a20617070726f76656420717565727920666f72206e6f6e657860008201527f697374656e7420746f6b656e0000000000000000000000000000000000000000602082015250565b7f4f776e61626c653a2063616c6c6572206973206e6f7420746865206f776e6572600082015250565b7f4552433732314d657461646174613a2055524920717565727920666f72206e6f60008201527f6e6578697374656e7420746f6b656e0000000000000000000000000000000000602082015250565b7f4552433732313a20617070726f76616c20746f2063757272656e74206f776e6560008201527f7200000000000000000000000000000000000000000000000000000000000000602082015250565b50565b7f4552433732313a207472616e736665722063616c6c6572206973206e6f74206f60008201527f776e6572206e6f7220617070726f766564000000000000000000000000000000602082015250565b613c35816134b1565b8114613c4057600080fd5b50565b613c4c816134c3565b8114613c5757600080fd5b50565b613c63816134cf565b8114613c6e57600080fd5b50565b613c7a816134d9565b8114613c8557600080fd5b50565b613c9181613525565b8114613c9c57600080fd5b5056fea2646970667358221220e4aef4c0e39d5c84d76def61971557cda88691c032b12c82de66f60944adb06e64736f6c63430008040033",
  "linkReferences": {},
  "deployedLinkReferences": {}
}